:400000000080002011000000150500001505000008B5044B1A6803F53F5302331A6000F099FA00BFFA46004010B5054C237833B9044B13B10448AFF300800123237010BDB0
:400040005081FF1F00000000C82C0000084B10B51BB108490848AFF300800848036803B910BD074B002BFBD0BDE81040184700BF000000005481FF1FC82C0000C880FF1F0A
:400080000000000008B500F043FB044B1B7813F0FF0F02D10122014B1A7008BD6C81FF1F08B500F0EFFA064B1870732802D10122044B5A706F2802D10122024B9A7008BD04
:4000C0009CA9FF1F6C81FF1F38B5514BDB78012B19D013B1022B38D038BD4D4D00242C71012000F009FB204600F0FAFA204600F0EBFA2B78DBB2012B40F088802B46012296
:40010000EA701C7038BD002000F0F6FA012000F0E7FA002000F0D8FA002409E0002000F00DFF00F023FF3A4B03EB440318810134B4F5806FF2DB364B5B78002B66D0344BB4
:400140000222DA7000225A7038BD002000F0D4FA002000F0C5FA012000F0B6FA00250AE02B4C04EB4504207A00F0A2FA2089000A00F09EFA0135B5F5806FF1DB24484FF459
:40018000806200F60801083001F01AFA002513E01F4C04EB850494F8080800F089FA94F8090800F085FA94F80A0800F081FA94F80B0800F07DFA0135B5F5006FE8DB144A8C
:4001C00013790133DBB21371092B07D892782AB10F4B0122DA7000229A7038BD0A2B10D10B4B9B786BB1002000F086FA002000F077FA002000F068FA054B0022DA709A706A
:4002000038BD034B0222DA7000229A7038BD00BF6C81FF1F08B562B6084800F099FA084800F0BEFA00F020FA00F03CFB00F06AFE00F07CFEFFF748FFFCE700BF850000002B
:40024000A1000000FEE700BFF0B40022174611E050F82760F3B226F0FF0608E001EB420511F812406D78A5550132013BDBB2002BF4D101371D2FEBD9F0BC70470C4B1B78C0
:40028000DBB203F007010B4A11701B09013213703022094B1A70012203F683031A70022280331A704422A3F28A231A70704700BFCF0100496E580040FD51004008B50A46E7
:4002C000002102F03CFC08BD08B502F02DFC08BD38B50024314B1C80502202331A70192502331D8018232E4A137040F65F11023211800232137004222A492B48FFF7E4FFAA
:4003000002222A4B1A7008224FF040231A70032103F500731970264B1B78DBB225490B70254B1A8041F25122023B1A800CE0234B1B7803F0010343EA440404F003044FF494
:40034000F07001F02DF9013D0DB1032CEFD115B90320FFF777FF1A4B4FF480721A8007221A70002217490A704820023108701A700222033B1A7004220A331A70124A13787E
:4003800043F007031370013A137843F001031370013A137843F08003137038BD804000408640004060040048004100400043004008010049A146004022420040254200408F
:4003C0000440004006400040A2430040012807D8044B53F820201844017A13780B431370704700BFCC2C0000012808D8044B53F820201844017A137823EA010313707047BB
:40040000CC2C000038B572B6304A137843F00403137000240BE02E4863001A19510001440A46098AD068FFF749FF0134E4B2072CF1D928494FF09040FFF706FF0A25264B00
:400440001D7004212548FFF739FF04212448FFF735FF244A137843F0020313701032137843F002031370204C237843F040032370A2F58632513A137843F0100313700822D0
:400480001A491B48FFF720FF08221A491A48FFF71BFF2A4619491A48FFF716FF194A137843F008031370184D61232B70FFF710FF81232B700122154B1A70FFF7DFFE0E229C
:4004C00021461348FFF700FF38BD00BFE8460040CC2C00007800004883580040007600400876004003500140A043004044040048F25100404C040048125100405404004837
:4005000020510040224300400048004004000840B043004008B502F0CBFA03680C2B00D1FEE7FEE708B5094B1A681044084BC31AB3F5005F02DC054B186005E002F0B8FA60
:400540000C2303604FF0FF32104608BDCC80FF1FA8A9FF1F08B5104E104D16E029686B68AC68002204E051F8040B43F8040B0432A242F8D1E868002203E0002143F8041B44
:4005800004328242F9D11035013E002EE6D102F095FAFFF73FFEFEE701000000A42F020008B5114A114B1A60114A136843F40073136000230AE0032B03D80E4A52F82310D3
:4005C00000E00D490D4A42F8231001332F2BF2D90B4B1A780B4B1A70084A0B4B1A60FFF711FF00F0D7FE08BD0004FA050CED00E014ED00E000000000150500000080FF1FB9
:40060000BC760040C080FF1F08ED00E07222074B1A70202202331A7006225D3B1A70472210331A7002224E331A7070478A64004010B500F0BDFF04460A4A137843F0200320
:4006400013700232137843F0100313700132137843F01003137000F0C7FC204600F0ACFF10BD00BF9A64004008B5054B1B7823B9FFF7CCFF0122024B1A70FFF7D9FF08BDA0
:4006800074A9FF1F084B1B78DBB213F0200F06D0064A1078C0B213F01E0F02D17047002070470020704700BF6C6400404C640040034B1B7813F0040FFAD1024B18707047C5
:4006C0006D6400404E640040044A137803F0EF03000100F0100018431070704720510040044A137803F0DF03400100F0200018431070704720510040044A137803F0BF0325
:40070000800100F0400018431070704720510040014B1878C009704782450040014B1B689865704708ED00E04001C0B2014B1870704700BF06E400E04022014B1A60704764
:4007400000E100E04022014B1A60704780E100E010B50446FFF7F6FF2046FFF7DFFF0720FFF7E2FFFFF7E8FF10BD00BF014B1B681864704708ED00E04001C0B2014B18709F
:40078000704700BF00E400E00122014B1A60704700E100E00122014B1A60704780E100E010B50446FFF7F6FF2046FFF7DFFF0720FFF7E2FFFFF7E8FF10BD00BF10B500F06D
:4007C0006BFC074C0121207800F0FEFD0121607800F0FAFD002000F07BFC00F013FC10BD76A9FF1F70B505460E464FF48043020C0121084600F014FC094C2070A0780123C0
:400800000246314600F070FE4FF4B742A9B2A07800F07EFEA178207800F01EFE70BD00BF76A9FF1F70B505460E464FF48043020C0121084600F012FC094C6070E0780123B3
:400840000246314600F050FE4FF4B742A9B2E07800F05EFEE178607800F0FEFD70BD00BF76A9FF1F10B500F05BFC022000F022FC042000F045FC00F01DFE084CA07000F00B
:4008800019FEE070064C4FF47A712046FFF7AAFF642104F57A70FFF7C5FF10BD76A9FF1F082D000008B5054B1B7923B9FFF7DAFF0122024B1A71FFF781FF08BD76A9FF1F2C
:4008C00038B59DF81040651EEDB2032D51D8013809282ED8DFE800F0052D2D052D2D0F192D230F2B03D92548007840B222E02448007840B21EE00F2B03D92248007840B2A1
:4009000018E02148007840B214E00F2B03D91F48007840B20EE01E48007840B20AE00F2B03D91C48007840B204E01B48007840B200E0002001EB401101FB02F2D20B91B287
:400940000D2B0BD8C3F10E0192B20A4191B2621E124800EB82020133937005E0631E0F4A02EB83030F229A70013C0C4B23F8241038BD002000F0DAFD38BD00BF1801004905
:400980001C010049190100491D0100491A0100491E0100491B0100491F0100497CA9FF1FF8B5074600F004FE06460D4D2B7843F003032B700B4C237843F0030323700A4B0E
:4009C0001F70032000F0B4FD2B7803F0FC032B70237803F0FC032370304600F0EDFDF8BDF8460040F946004092580040F8B504460022C04B1A7401285AD13822BE4B1A7035
:400A0000042202331A70062201331A70002501331D7001331D703F2201331A7002331D7001331D7001331D7001260A331E70502203F527631A700A23B04A13702C21013247
:400A4000117001321570442103321170482101321170013216700232157001321570013213704322A64B1A705220FFF799FF5822A44B1A7001331D700223A34A13700132C9
:400A80001370A24B1D7001331D70284600F06EFB43F233329E4B1A603146052000F08AFB3146BA2000F00AFC9A491D2000F04AFD022C5DD13822904B1A70042202331A7005
:400AC000062201331A70002501331D7001331D703F2201331A7002331D7001331D7001331D7001260A331E70502203F527631A70272201331A702C2201331A7001331D70C2
:400B0000552203331A705A2201331A70052701331F7002331E70112201331A70192201331A70972201331A704420FFF739FF5822744B1A7001331D7005331F7002220133FC
:400B40001A7001331D7001331D70284600F00EFB4FF47A426E4B1A603146384600F02AFB3146252000F0AAFB6B491D2000F0EAFC032C5DD13822604B1A70042202331A70DD
:400B8000062201331A70002501331D7001331D703F2201331A7002331D7001331D7001331D7001260A331E70502203F527631A70272201331A702C2201331A7001331D7001
:400BC000552203331A705A2201331A70052701331F7002331E70112201331A70192201331A70972201331A704420FFF7D9FE5822444B1A7001331D7005331F7002220133CD
:400C00001A7001331D7001331D70284600F0AEFA4FF47A423E4B1A603146384600F0CAFA3146252000F04AFB3C491D2000F08AFC042C5DD13822304B1A70042202331A702C
:400C4000062201331A70002401331C7001331C703F2201331A7002331C7001331C7001331C7001250A331D70502203F527631A70272201331A702C2201331A7001331C7049
:400C8000552203331A705A2201331A70052601331E7002331D70112201331A70192201331A70972201331A704420FFF779FE5822144B1A7001331C7005331E7002220133A1
:400CC0001A7001331C7001331C70204600F04EFA4FF47A420E4B1A602946304600F06AFA2946252000F0EAFA0D491D2000F02AFCF8BD00BF7CA9FF1F004E004085580040AE
:400D000091580040945800409A5800409C580040A0A9FF1FD90F0000DD0F0000E10F0000E50F00002DE9F04182B0394D4FF0010885F80080374E00247474102000F028FAC2
:400D4000102000F0A9FA07211D2000F00FFC0427314B1F7001331C7007331C702F4A137843F0180313702E4B1C7003F2F5231C7001331C700A22A3F209331A7001331C701A
:400D800002331C705B2205331A705E2201331A7004331C701422A3F68C231A70CDF8008010234FF4004248F6F0510220FFF788FD0223009310234FF4004249F2DA01204625
:400DC000FFF77EFD0323009310234FF4004249F2DA012046FFF774FD009710234FF4004249F2DA012046FFF76BFD2B78013B06EB83039A780B4B1A702B78013B36F823206D
:400E0000094B1A802878FFF7F1FD02B0BDE8F081D080FF1F7CA9FF1F96580040075B0040935800400E4E00400C4E004070B500F0BFFB06462A4B1B782A4B1A7842F0010237
:400E40001A701A7842F010021A7010331A7842F001021A701A7842F010021A70224D2B7843F002032B70214C237843F0020323701F4A137843F003031370032000F058FBC6
:400E80002B7803F0FD032B70237803F0FD032370184A137843F0060313707A22164B1A70164A137843F0010313701032137843F0010313700F3A137843F0010313701032B1
:400EC000137843F0010313704FF000530C4A1360A2F5C0721360304600F06EFB70BD00BFD080FF1FAA430040F8460040F9460040915800407758004082580040A14300404D
:400F000080E200E008B5084B9B7C4BB9064BDB7C13F0FF0F01D1FFF705FF0122024B9A74FFF784FF08BD00BF7CA9FF1F024A137843F0010313707047004E0040094B1B7C40
:400F400013F0FF0F03D0074B5B7CDBB203E0064B1B7803F00103012B01D00028EED01846704700BF7CA9FF1F014E0040154B1B7803F00303012B07D8134B1888023B1B88BB
:400F80009BB243EA004013E0022B0AD10E4B1888023B1B7843EA00430C4A107843EA002006E00B4B188883B2074A108843EA0040084B1B7C13F0FF0F02D00022054B5A74A4
:400FC000704700BF144E0040124E0040114E0040104E00407CA9FF1F704700BF704700BF704700BF704700BF054A137843F0020313701032137843F002031370704700BF4E
:40100000A2430040054A137843F0040313701032137843F004031370704700BFA2430040F0B583B016461F460B4D00242C700194009423460A460146204600F019FA3A460C
:401040003146287800F0EEF90221287800F0D8F9287803B0F0BD00BFD180FF1FF0B583B016461F460B4C012525700023019300930A460146284600F0FBF93A463146207863
:4010800000F0D0F90221207800F0BAF9207803B0F0BD00BFD280FF1F054A137843F0010313701032137843F001031370704700BFA8430040054B1A7802F0FD021A701A7847
:4010C00000F0020010431870704700BF20580040014B1870704700BF805B0040064B1B78C3F3810303F19243063393F82031DBB2024A1370704700BF20580040084600407C
:4011000008B5064B1A7802F0F3021A701A7800F00C0010431870FFF7E1FF08BD2058004008B50020074B187001331870064A137843F008031370FFF7E3FF0220FFF7BAFF2A
:4011400008BD00BF20580040875A004010B5002404E02046FFF748F90134E4B2012CF8D9FF22014B1A7010BDD380FF1F10B50446FFF7ECFF2046FFF729F9014B1C7010BD97
:40118000D380FF1F014B188880B2704780400040034B1A7800F0F80010431870704700BF82400040024B187800F00700704700BF8240004070B505460E46FFF7F3FF04468C
:4011C000FFF7E0FFA84256D02B4B1B7803F0010294B900B185B938B9284B1D80284A137803F0BF03137070BD254A137843F040031370224B1D8070BD22B3002321490B7065
:4012000001240F310C7004310B700C390B7803F07F030B701A4B1B7813F0080F00D08DB9194B18800721013B1970164B1B7813F0010FFAD110490B7803F0FE030B70002116
:40124000104B19700C4B1B7813F0010F0DD00E4B1D800EB1032200E001220A4B1A70094B1B7813F0010FFAD170BD044B1D8002490B7813430B7070BDA24300408040004025
:40128000824000400140004002400040014B188880B2704700410040034B1A7800F0F80010431870704700BF02410040024B187800F00700704700BF0241004070B50546FA
:4012C0000E46FFF7F3FF0446FFF7E0FFA84256D02B4B1B7803F0010294B900B185B938B9284B1D80284A137803F0BF03137070BD254A137843F040031370224B1D8070BDBB
:4013000022B3002321490B70012413310C7004390B7008390B7803F07F030B701A4B1B7813F0080F00D08DB9194B18800721013B1970164B1B7813F0010FFAD110490B78C0
:4013400003F0FE030B700021104B19700C4B1B7813F0010F0DD00E4B1D800EB1032200E001220A4B1A70094B1B7813F0010FFAD170BD044B1D8002490B7813430B7070BDB9
:40138000A1430040004100400241004001400040024000400B4A7F2313708021517007E0DA0002F1804202F5F042013BDBB21370002BF5D1DB0003F1804303F5F04300226B
:4013C0001A707047D480FF1F172815D831B103010A495A5C42F020025A5405E0030107495A5C02F0DF025A540001044A835C43F00103835400207047012070471070004002
:4014000017280BD80001064A835C03F0F103490001F00E011943815400207047012070471070004041F6FF73994201D14FF4005141F6FF739A4201D14FF40052172808D895
:40144000C00000F1804000F5EC408180C280002070470120704700BF172805D8034B03EB0010417200207047012070471070004017281BD810B4C00000F1804404F5EC440B
:40148000D201D2B201F07F01114321709DF804201201D2B203F00F03134363709DF8083003F00F03A3700020E07001E00120704710BC704710B500F07BF80A4B5B78182BDD
:4014C0000BD9084A1478013B5370E30003F1804303F5F0431B78137000E0FF2400F06CF8204610BDD480FF1F10F0800F0CD111F4704F0BD1C00000F1804000F5F040018031
:401500008270C37000207047012070470120704710F0800F08D1C00000F1804000F5F0408180C280002070470120704701BE704708B5034B1B7A00FB03F000F031F808BD2D
:40154000DC80FF1F70B504460E46074B1D681F2802D90020FFF7EAFF04F01F04103455F8240045F8246070BD08ED00E038B504460D46072902D90020FFF7D8FF1F2C02D9FF
:401580000020FFF7D3FF04F01F0000F1604000F564406D01EDB2057038BD00BF000000000230800803D000BF01380046FCD17047EFF3108072B6704780F31088704700BFAF
:4015C000F0B587B006460F461446012300222146684600F03BFAA00001F096FA0546002304E036F8132045F823200133A342F8DB3A462946684600F0F1F9284601F08CFAF8
:4016000007B0F0BD2DE9F04F9BB00546189008461991249C0834129409010439249C0C44139405F10807C1001791A1F1040CAC442599C900169102EB010E0B44421E0492AC
:4016400005930197CFE0DEF80020DEF80430019800684FEAE0791446D517CDE91445294600FB01F102FB0911A0FB02670F4416F1004647F10007DD179A46AB4600FB05F494
:4016800003FB0944A0FB0301214410F1004841F1000903970021029101994C68E71703FB07F6CDE906AB04FB0566A3FB04013144DDE902ABBAEB000A6BEB010B504610F1BE
:4016C00000404BF10001CDF82490DDE902ABCDF820A0019D0835019502FB07F0159D04FB0500A2FB04450544DDE9086736196F41344614F1004447F100050B91CDF828A055
:40170000DCF80040E71703FB07F2079904FB0122A3FB04011144DDE90A89B8EB000869EB0109404610F1004049F10001059A10680D95CDF830A04FEAE07904FB09F200FBAD
:401740000722A4FB00451544DDE90C67361B67EB0507344614F1004447F100050F91CDF838A05CF8042CD71700FB07F402FB0944A0FB02012144DDE90E8918EB000849EB8D
:401780000109404610F1004049F100011195CDF840A0ACF1080C03FB07F0079C02FB0400A3FB02230344DDE91045A41A65EB0305224612F1004245F10003129C224642F817
:4017C000081B63605842139C234643F8080944F8041C1698059C04440594864404990139049113931292049B002B7FF42CAF18990B684A689B1A5B10249A199842F83030E2
:40180000179B043300222498C2500B4609685B680B445B10036042601BB0BDE8F08F00BF2DE9F04F95B011900391964610934FEAC10C0CF1040C8444C8E0DEF80020DEF840
:401840000430119F39684FEAE1791446D517CDE91245284601FB00F002FB0900A1FB0245054414F1004445F1000558424FEAE07B00FB09F401FB0B44A0FB0101214410F179
:40188000004841F100090195002100917E684FEAE67B1846D917CDE9040106FB01F403FB0B44A6FB03012144DDE9004524184D41204610F1004045F10001CDF81C90DDE99D
:4018C0000089CDF8188007F10804119402FB0BF0139C06FB0400A2FB06670744DDE90645A4197D41264616F1004445F100050991CDF82080DCF80040E71703FB07F2059934
:4019000004FB0122A3FB04011144DDE908AB1AEB000A4BEB010B504610F100404BF10001109A10680B95C246CDF828804FEAE07904FB09F200FB0722A4FB00451544DDE9C5
:401940000A67361B67EB0507344614F1004447F100050D91CDF830A05CF8042CD71700FB07F402FB0944A0FB02012144DDE90C9A19EB00094AEB010A484610F100404AF19C
:4019800000010F95009C0E94ACF1080C03FB07F0059C02FB0400A3FB02230344DDE90E45A4185D41224612F1004245F100031E9A42F8081B1E9843601F9BDB001099194490
:4019C00010919E44039B013B03931E92039B002B7FF433AF15B0BDE8F08F00BF2DE9F04182B00446884615464769066876080279012A1AD18368019300950369C268314644
:401A00004046FFF70DFF637922792946384600F021FA002305E055F82320520045F82320013322689342F6D30CE04379384600F011FA2369E268A1680191009531464046C5
:401A4000FFF7E0FD02B0BDE8F08100BF10B489B201602F4CC4602F4C046102714371B1F5007F32D00BD8402941D002D8202944D04AE0802935D0B1F5807F2CD044E0B1F508
:401A8000006F16D003D8B1F5806F18D03CE0B1F5805F08D0B1F5005F36D1012383601E4B4361002032E0022383601C4B436100202CE0042383601A4B4361002026E008230B
:401AC0008360184B4361002020E010238360164B436100201AE020238360144B4361002014E040238360124B436100200EE080238360104B4361002008E04FF4807383606F
:401B00000D4B4361002001E04FF0FF3010BC70475431000054B10000D4310100C4310100943101006431010084310100B4310100A431010054310100743101002DE9F04FE2
:401B40008FB083460D910C924FEA510A4FF00009CC46CDF814A0CA467FE04FEACA030C9951F83A00043351F803E00AF1010A059B0CEB03024FEACC015BF83C309C104FEA6E
:401B8000C2080A925BF832309A10A31A22444BF83C2004315BF80120941008F104020B925BF802209510621B2C444BF801401C46DD17C71703FB07F1CDE9064500FB0511EE
:401BC000A3FB00450D4414F1004845F10009D51700FB05F402FB0744A0FB0201214410F1004641F10007CDE90867CDF80490002100917046C11702FB01F00EFB0500A2FB23
:401C00000E450544DDE9008918EB040649EB0507344614F1004447F10005099E0396CDF8088003FB01F1079A0EFB0211A3FB0E230B44DDE90201801A61EB0301024612F116
:401C4000004241F100036A000A994BF831205B000B9A4BF802300CF1010C059B9C45FFF47CAF9A4602230C9C22465146584600F04FF90223224651460D980BEB800000F07D
:401C800047F900221BE013015BF8035003F1040E5BF80E4003F108075BF8070003F10C065BF806106D006400400049004BF803504BF80E404BF807004BF8061001325245AC
:401CC000E1D30FB0BDE8F08F2DE9F04F8FB083460D910C924FEA510A4FF00009CC46CDF814A0CA467EE04FEACA030C9951F83A00043351F803E00AF1010A059B0CEB0302AC
:401D00004FEACC015BF83C309C104FEAC2080A925BF832309A10A31A22444BF83C2004315BF80120941008F104020B925BF802209510621B2C444BF801401C46DD17C717CA
:401D400003FB07F1CDE9064500FB0511A3FB00450D4414F1004845F10009D51700FB05F402FB0744A0FB0201214410F1004641F10007CDE90867CDF804900021009170460A
:401D8000C11702FB01F00EFB0500A2FB0E450544DDE90089B8EB040669EB0507344614F1004447F10005099E0396CDF8088003FB01F1079A0EFB0211A3FB0E230B44DDE99C
:401DC000020180185941024612F1004241F100036A000A994BF831205B000B9A4BF802300CF1010C059B9C45FFF47DAF9A4602230C9C22465146584600F042FB0223224628
:401E000051460D980BEB800000F03AFB00221BE013015BF8035003F1040E5BF80E4003F108075BF8070003F10C065BF806106D006400400049004BF803504BF80E404BF8BD
:401E400007004BF8061001325245E1D30FB0BDE8F08F00BF70B504460D461E460188012A27D1B1F5807F19D00AD820291CD002D8102945D112E0402910D0802914D03FE05B
:401E8000B1F5806F0AD003D8B1F5007F0CD037E0B1F5006F08D0B1F5805F31D101236268284600F0EDFA2BE062682846FFF70CFF26E0B1F5807F19D00AD820291CD002D850
:401EC00010291DD112E0402910D0802914D017E0B1F5806F0AD003D8B1F5007F0CD00FE0B1F5006F08D0B1F5805F09D101236268284600F00DF803E062682846FFF71EFEF8
:401F000026B1A268A189284600F072FD70BD00BF2DE9F04FA5B020901991219211938B0819462393DB00C618F418029404EB0309044608914FF00008CDF80480CA46934628
:401F400023681B110298026812119D18C2EB030C3168DAF80020131103EB211362681211406800111718121A0492EA18214641F8082B0991EB1A1D467068DAF804100A11FA
:401F800002EB2012B9186160BA1A7068DAF804100911C1EB201E3068DAF800100911C1EB20170A97019908015BF8001004305BF800004FEAE37844469846A1460B46CC171E
:401FC000CDE90E3405FB04F4CDE90C8901FB09440695A5FB018904EB09054FEAE2794FEAE07802FB08F700FB0977A2FB00342744EC196400334643F8084B109301FB09F7B4
:402000000F9C02FB0477A1FB02452F44069B03FB08F20D9D00FB0522A3FB00010A44BA1A530073600CEB0E01CEEB0C03049A0A9CC4EB020C22440198C4005BF8300004348E
:402040005BF804E0CE170F46B046C51701FB05F4CDE9047800FB0644A1FB00673C444FEAEC78C146E0467646F717CDE90A670CFB07F6CDE906890EFB0966ACFB0E784644FB
:4020800034446400029FB84648F8084BCDF83080079E00FB06F60CFB0566A0FB0C452E440B9C01FB04F405980EFB0044A1FB0E012144761A71007960019901EB4100C1003A
:4020C0005BF830E004315BF801C04FEAE3797446E51703FB05F40EFB0944A3FB0E010C44D7176046C117CDE9020102FB01F00CFB07010491A2FB0C010846049901440846C0
:4021000020444400504640F8084B0EFB07F602FB0566AEFB02452E44039903FB01F10CFB0911A3FB0C230B44F61A7300CAF804300199119A8A180192099C109E0C9F0297B3
:402140008246089B013B08937FF4FAAE119B9B001F93199B9B082293239B119342E1119B9B081D9300231C931E932DE11E9D05EB4502EB00219850F835101A910433C358C8
:4021800006932B01C1581B910433C3580993D30050F832200A92043350F803B01F9BEB181E93209B19461C9A01EBC20A1D9BDB000AEB030808EB030909EB030E0492CDF884
:4021C00040A0CDF80480CDF80890CDF830B0F3E0109F3A6802990B68D418D31A0E937A684B68D018C3EB020B019E3268DEF80030D1186518AD103D60611A7268DEF8043072
:402200001344C21892107A60119AD200089214463A4622441092C3EB000C7268DEF80430C3EB020A3068DEF80030C01ACE170F46B0461B9E3446F517CDE914452C4601FB3C
:4022400004F4CDE9127806FB0844A1FB06231C441894E0464FEAEC79CDE91689099D4FEAE57843460CFB08F2DDE9168905FB0922ACFB05452A44189C22445210019C22609F
:4022800006FB09F2159D0CFB0522A6FB0C45541901FB03F5139B099E06FB0355A1FB06231D44651B6D10019B5D60089D1946294401910E9B03EB0A0CCAEB0302C0EB0B089D
:4022C0000BEB00036046C11764460D461A9E4FEAE67B0CFB0BF9CDE9124506FB0199ACFB060189444046C117CDE90E01069D2C46E91708FB01F02F460F9D04FB0500A8FBF6
:402300000745284448444010029C20600F9C06FB04F408FB0B40A6FB088900EB09040CFB01F513980746069E304606FB0755ACFB00010D44651B6D10029C6560089D6119EB
:4023400002914FEAE27B0A9E4FEAE67902FB09FC06FB0BCCA2FB06018C441846D917CDE90E010C9DEF17394603FB07F02E460F9C05FB0400A3FB0667384460444010CEF80C
:4023800000000A9F0F9C07FB04F403FB0940A7FB0345284402FB01F10C9D05FB0B11A2FB05231944401A4010CEF80400089DAE44049B119A13440493049B199A9342FFF4FF
:4023C00007AF1C9B01331C931D9B013B1C9A9A427FF6CCAE1F9B9B001F93229B9B0822931D9B1193229B042B3FF6B9AEDDF880E0239CDEF80020DEF80470DEF80830DEF800
:402400000C90DEF81080DEF81460DEF81850DEF81CC0D0184044284407EB090131446144CEF80000CEF80410D01A4044401BC9EB07013144CCEB0101CEF80800CEF80C106F
:4024400002EB0900C8EB0000CCEB0000F91A891B2944CEF81000CEF81410C9EB0202C8EB020262443B449B1B5B1BCEF81820CEF81C300EF1200E013CBBD125B0BDE8F08F59
:402480002DE9F04FA5B020901991219211938B0819462393DB00C618F418029404EB0309044608914FF00008CDF80480CA46934623681B110298026812119D18C2EB030C18
:4024C0003168DAF80020131103EB211362681211406800111718121A0492EA18214641F8082B0991EB1A1D467068DAF804100A1102EB2012B9186160BA1A7068DAF8041081
:402500000911C1EB201E3068DAF800100911C1EB20170A97019908015BF8001004305BF800004FEAE37844469846A1460B46CC17CDE90E3405FB04F4CDE90C8901FB094457
:402540000695A5FB018904EB09054FEAE2794FEAE07802FB08F700FB0977A2FB00342744EC1B6400334643F8084B109301FB09F70F9C02FB0477A1FB02452F44069B03FB98
:4025800008F20D9D00FB0522A3FB00010A443A4453007360CEEB0C010CEB0E03049A0A9C02EB040C121B0198C4005BF8300004345BF804E0CE170F46B046C51701FB05F438
:4025C000CDE9047800FB0644A1FB00673C444FEAEC78C146E0467646F717CDE90A670CFB07F6CDE906890EFB0966ACFB0E784644A41B6400029FB84648F8084BCDF83080E4
:40260000079E00FB06F60CFB0566A0FB0C452E440B9C01FB04F405980EFB0044A1FB0E0121440E4471007960019901EB4100C1005BF830E004315BF801C04FEAE37974467A
:40264000E51703FB05F40EFB0944A3FB0E010C44D7176046C117CDE9020102FB01F00CFB07010491A2FB0C01084604990144601A4400504640F8084B0EFB07F602FB056636
:40268000AEFB02452E44039903FB01F10CFB0911A3FB0C230B441E447300CAF804300199119A8A180192099C109E0C9F02978246089B013B08937FF4FBAE119B9B001F93BC
:4026C000199B9B082293239B119344E1119B9B081D9300231C931E932FE11E9D05EB4502EB00219850F835101A910433C35806932B01C1581B910433C3580993D30050F802
:4027000032200A92043350F803B01F9BEB181E93209B19461C9A01EBC20A1D9BDB000AEB030808EB030909EB030E0492CDF840A0CDF80480CDF80890CDF830B0F5E0109FE2
:402740003A6802990B68D418D31A0E937A684B68D018C3EB020B019E3268DEF80030D1186518AD103D60611A7268DEF804301344C21892107A60119AD200089214463A46FB
:4027800022441092C3EB000C7268DEF80430C3EB020A3068DEF80030C01ACE170F46B0461B9E3446F517CDE914452C4601FB04F4CDE9127806FB0844A1FB06231C441894FF
:4027C000E0464FEAEC79CDE91689099D4FEAE57843460CFB08F2DDE9168905FB0922ACFB05452A44189CA21A5210019C226006FB09F2159D0CFB0522A6FB0C45541901FBE3
:4028000003F5139B099E06FB0355A1FB06231D4425446D10019B5D60089D1946294401910E9BCAEB030C53441A460BEB0008C0EB0B036046C11764460D461A9E4FEAE67BA2
:402840000CFB0BF9CDE9124506FB0199ACFB060189444046C117CDE90E01069D2C46E91708FB01F02F460F9D04FB0500A8FB07452844C0EB09004010029C20600F9C06FBB0
:4028800004F408FB0B40A6FB088900EB09040CFB01F513980746069E304606FB0755ACFB00010D4425446D10029C6560089D611902914FEAE27B0A9E4FEAE67902FB09FC70
:4028C00006FB0BCCA2FB06018C441846D917CDE90E010C9DEF17394603FB07F02E460F9C05FB0400A3FB06673844C0EB0C004010CEF800000A9F0F9C07FB04F403FB09404A
:40290000A7FB0345284402FB01F10C9D05FB0B11A2FB0523194408444010CEF80400089DAE44049B119A13440493049B199A9342FFF405AF1C9B01331C931D9B013B1C9A24
:402940009A427FF6CAAE1F9B9B001F93229B9B0822931D9B1193229B042B3FF6B7AEDDF880E0239CDEF80090DEF80430DEF80870DEF80C20DEF81080DEF81460DEF81850EE
:40298000DEF81CC009EB070040442844991831446144CEF80000CEF80410C7EB09004044401B991A3144CCEB0101CEF80800CEF80C10C2EB0900C8EB00006044D919891B41
:4029C000491BCEF81000CEF814104A44C8EB0202CCEB0202DB1B9B1B2B44CEF81820CEF81C300EF1200E013CBCD125B0BDE8F08F4B1C012B98BF70472DE9F003911C9B089E
:402A0000B1F80480B1F802900A8831F802CC8044814402448444D9F80070D8F800601568DCF80040C9F80060C8F80070CCF800501460D9F80470D8F804605568DCF80440E5
:402A4000C9F80460C8F80470CCF8045054600831013BD5D1BDE8F00370474B1C012B98BF70472DE9F003911C9B08B1F80480B1F802900A8831F802CC00EB580800EB590944
:402A800000EB520200EB5C0CD9F80070D8F800601568DCF80040C9F80060C8F80070CCF8005014600831013BDFD1BDE8F0037047014B1868704700BF4C81FF1F0E4B70B58A
:402AC0001E460E4C0025E41AA410A54204D056F8253098470135F8E720F052FA084B094C1E46E41AA4100025A54204D056F8253098470135F8E770BD8C2F02008C2F0200B7
:402B00008C2F0200942F0200024B0146186800F06BB800BF4C81FF1F024B0146186800F017B800BF4C81FF1F10B5431E0A44914204D011F8014B03F8014FF8E710BD034615
:402B40000244934202D003F8011BFAE77047000038B50546002944D051F8043C0C1F002BB8BFE41800F0AEF81E4A1368114613B96360146030E0A3420DD92268A01883423D
:402B800001BF18685B681218226063600C6023E0A24203D813465A68002AF9D118681918A1420BD12168014458188242196013D110685268014419605A600DE002D90C23F6
:402BC0002B6009E021686018824201BF106852680918216062605C602846BDE8384000F072B838BD98A9FF1F70B5CD1C25F0030508350C2D38BF0C25002D064601DBA94288
:402C000002D90C23336046E000F05CF8234B1C681A462146A1B10B685B1B0ED40B2B03D90B60CC18CD501EE08C420BBF63684B681360636018BF0C4615E00C464968E9E7FE
:402C4000174C23681BB9304600F02CF820602946304600F027F8431C18D0C41C24F00304A0420DD12560304600F02DF804F10B00231D20F00700C31A0ED05A42E25070BD75
:402C8000211A304600F00EF80130EBD10C233360304600F018F8002070BD00BF98A9FF1F94A9FF1F38B5064C0023054608462360FDF738FC431C02D1236803B12B6038BDEB
:402CC000A4A9FF1F7047704700000000035B00402443004040000000005100401000305100404000C0510040100000000140001000140140000800400140000A004C0140AD
:402D000000020050014020008080818182828384848585868787888889898A8B8B8C8C8D8E8E8F8F90909192929393949595969697979899999A9A9B9B9C9C9D9E9E9F9F7A
:402D4000A0A0A1A1A2A3A3A4A4A5A5A6A6A7A7A8A8A9AAAAABABACACADADAEAEAFAFB0B0B1B1B2B2B3B3B4B4B5B5B6B6B7B7B8B8B8B9B9BABABBBBBCBCBDBDBDBEBEBFBF49
:402D8000C0C0C1C1C1C2C2C3C3C3C4C4C5C5C5C6C6C7C7C7C8C8C8C9C9CACACACBCBCBCCCCCCCDCDCDCECECECFCFCFD0D0D0D0D1D1D1D2D2D2D2D3D3D3D4D4D4D4D5D5D53D
:402DC000D5D6D6D6D6D6D7D7D7D7D8D8D8D8D8D8D9D9D9D9D9DADADADADADADADBDBDBDBDBDBDBDBDCDCDCDCDCDCDCDCDCDCDDDDDDDDDDDDDDDDDDDDDDDDDDDDDDDDDDDD37
:402E0000DDDDDDDDDDDDDDDDDDDDDDDDDDDDDDDDDDDDDDDDDDDDDDDCDCDCDCDCDCDCDCDCDCDBDBDBDBDBDBDBDBDADADADADADADAD9D9D9D9D9D8D8D8D8D8D8D7D7D7D7D6D2
:402E4000D6D6D6D6D5D5D5D5D4D4D4D4D3D3D3D2D2D2D2D1D1D1D0D0D0D0CFCFCFCECECECDCDCDCCCCCCCBCBCBCACACAC9C9C8C8C8C7C7C7C6C6C5C5C5C4C4C3C3C3C2C212
:402E8000C1C1C1C0C0BFBFBEBEBDBDBDBCBCBBBBBABAB9B9B8B8B8B7B7B6B6B5B5B4B4B3B3B2B2B1B1B0B0AFAFAEAEADADACACABABAAAAA9A8A8A7A7A6A6A5A5A4A4A3A369
:402EC000A2A1A1A0A09F9F9E9E9D9C9C9B9B9A9A99999897979696959594939392929190908F8F8E8E8D8C8C8B8B8A8989888887878685858484838282818180807F7E7ECD
:402F00007D7D7C7B7B7A7A79787877777676757474737372717170706F6F6E6D6D6C6C6B6A6A6969686867666665656464636362616160605F5F5E5E5D5C5C5B5B5A5A59D7
:402F40005958585757565555545453535252515150504F4F4E4E4D4D4C4C4B4B4A4A494948484747474646454544444343424242414140403F3F3E3E3E3D3D3C3C3C3B3B11
:402F80003A3A3A393938383837373736363535353434343333333232323131313030302F2F2F2F2E2E2E2D2D2D2D2C2C2C2B2B2B2B2A2A2A2A29292929292828282827271E
:402FC00027272727262626262625252525252525242424242424242423232323232323232323222222222222222222222222222222222222222222222222222222222222FA
:4030000022222222222222222222222323232323232323232324242424242424242525252525252526262626262727272727272828282829292929292A2A2A2A2B2B2B2B30
:403040002C2C2C2D2D2D2D2E2E2E2F2F2F2F303030313131323232333333343434353535363637373738383839393A3A3A3B3B3C3C3C3D3D3E3E3E3F3F40404141424242C8
:403080004343444445454646474747484849494A4A4B4B4C4C4D4D4E4E4F4F505051515252535354545555565757585859595A5A5B5B5C5C5D5E5E5F5F6060616162636378
:4030C00064646565666667686869696A6A6B6C6C6D6D6E6F6F70707171727373747475767677777878797A7A7B7B7C7D7D7E7E7F80848A8F94989EA2A8ACB2B6BCC0C6CA46
:40310000D0D5DADEE4E8EEF2F8FCF8F2EEE8E4DEDAD4D0CAC6C0BCB6B2ADA8A29E98948F8A84807A76706B66615D58534E49443E39342F2A25211C17120D0803080D1217E6
:403140001C21252A2F34393E44494E53585D61666B70767A00000040000000C0026FF33F3C0100C005DEE63FEF0400C0094DDA3F1A0B00C00FBCCD3FBD1300C0162BC13F1D
:40318000D81E00C01F9AB43F6A2C00C02C09A83F743C00C03C789B3FF54E00C050E78E3FEE6300C06856823F5F7B00C085C5753F479500C0A834693FA7B100C0D0A35C3FC8
:4031C0007ED000C0FE12503FCEF100C03482433F941501C070F1363FD33B01C0B4602A3F896401C001D01D3FB68F01C0563F113F5CBD01C0B5AE043F78ED01C01D1EF83E02
:403200000D2002C08F8DEB3E195502C00CFDDE3E9C8C02C0946CD23E97C602C028DCC53E0A0303C0C84BB93EF44103C074BBAC3E568303C02E2BA03E2FC703C0F59A933E0E
:40324000800D04C0CA0A873E485604C0AE7A7A3E88A104C0A1EA6D3E3FEF04C0A35A613E6E3F05C0B5CA543E149205C0D83A483E31E705C00BAB3B3EC63E06C0501B2F3E3D
:40328000D39806C0A78B223E56F506C011FC153E525407C08D6C093EC4B507C01DDDFC3DAE1908C0C04DF03D0F8008C078BEE33DE8E808C0452FD73D385409C027A0CA3D01
:4032C000FFC109C01E11BE3D3D320AC02C82B13DF3A40AC051F3A43D201A0BC08D64983DC4910BC0E1D58B3DE00B0CC04D477F3D72880CC0D2B8723D7C070DC0702A663DC4
:40330000FD880DC0289C593DF50C0EC0F90D4D3D64930EC0E67F403D4A1C0FC0EDF1333DA8A70FC01064273D7C3510C050D61A3DC7C510C0AB480E3D8A5811C024BB013DFA
:40334000C3ED11C0BB2DF53C748512C06FA0E83C9B1F13C04213DC3C39BC13C03486CF3C4E5B14C045F9C23CDAFC14C0776CB63CDDA015C0C8DFA93C574716C03B539D3C3D
:4033800047F016C0CFC6903CAE9B17C0853A843C8C4918C05EAE773CE1F918C059226B3CACAC19C078965E3CEE611AC0BA0A523CA7191BC0217F453CD6D31BC0ACF3383C19
:4033C0007C901CC05D682C3C994F1DC034DD1F3C2B111EC03152133C35D51EC054C7063CB59B1FC09F3CFA3BAB6420C012B2ED3B183021C0AC27E13BFBFD21C0709DD43B2F
:4034000054CE22C05C13C83B24A123C07389BB3B6A7624C0B3FFAE3B274E25C01E76A23B592826C0B4EC953B020527C07563893B21E427C063DA7C3BB6C528C07D51703B35
:40344000C1A929C0C4C8633B42902AC03940573B39792BC0DBB74A3BA6642CC0AC2F3E3B89522DC0ACA7313BE2422EC0DC1F253BB1352FC03B98183BF52A30C0CB100C3BEA
:40348000B02231C08C89FF3AE01C32C07E02F33A861933C0A27BE63AA21834C0F8F4D93A331A35C0816ECD3A3A1E36C03DE8C03AB62437C02D62B43AA82D38C052DCA73A15
:4034C000103939C0AB569B3AED463AC039D18E3A3F573BC0FD4B823A076A3CC0F8C6753A447F3DC02942693AF6963EC091BD5C3A1DB13FC03039503ABACD40C008B5433A89
:40350000CCEC41C01931373A530E43C062AD2A3A4F3244C0E5291E3AC05845C0A3A6113AA68146C09A23053A01AD47C0CDA0F839D1DA48C03B1EEC39160B4AC0E69BDF3933
:40354000CF3D4BC0CC19D339FE724CC0F097C639A1AA4DC05116BA39B8E44EC0F094AD39452150C0CD13A139456051C0EA929439BBA152C045128839A5E553C0E1917B3903
:40358000032C55C0BC116F39D67456C0D99162391DC057C037125639D80D59C0D7924939075E5AC0B8133D39ABB05BC0DD943039C3055DC0451624394E5D5EC0F0971739EB
:4035C0004EB75FC0E0190B39C21361C0159CFE38AA7262C08E1EF23805D463C04DA1E538D43765C05224D938189E66C09EA7CC38CE0668C0312BC038F97169C00CAFB3380D
:4036000097DF6AC02E33A738A84F6CC099B79A382EC26DC04D3C8E3826376FC04BC1813892AE70C092467538712872C024CC6838C3A473C001525C38892375C029D84F386E
:40364000C2A476C09D5E43386E2878C05DE536388CAE79C06A6C2A381E377BC0C5F31D3823C27CC06D7B11389B4F7EC06403053885DF7FC0A98BF837E27181C03E14EC3745
:40368000B20683C0229DDF37F49D84C05726D337A93786C0DCAFC637D0D387C0B339BA376A7289C0DBC3AD3776138BC0554EA137F5B68CC022D99437E55C8EC042648837C2
:4036C000480590C0B5EF7B371DB091C07D7B6F37645D93C0990763371D0D95C00A94563748BF96C0D0204A37E47398C0EDAD3D37F32A9AC0603B313773E49BC02AC924371E
:4037000065A09DC04B571837C85E9FC0C4E50B379D1FA1C09674FF36E3E2A2C0C003F3369BA8A4C04493E636C470A6C02123DA365E3BA8C059B3CD366A08AAC0EC43C136BD
:40374000E6D7ABC0D9D4B436D4A9ADC02366A836337EAFC0C9F79B360255B1C0CB898F36422EB3C02B1C8336F309B5C0E8AE763615E8B6C003426A36A7C8B8C07DD55D36ED
:40378000AAABBAC0566951361D91BCC08FFD44360179BEC0289238365563C0C021272C361950C2C07BBC1F364D3FC4C037521336F230C6C054E806360625C8C0D47EFA3515
:4037C0008A1BCAC0B715EE357F14CCC0FDACE135E30FCEC0A744D535B60DD0C0B6DCC835FA0DD2C02975BC35AD10D4C0020EB035CF15D6C040A7A335611DD8C0E5409735C8
:403800006227DAC0F0DA8A35D233DCC063757E35B242DEC03D1072350154E0C080AB6535BE67E2C02B475935EB7DE4C03FE34C358696E6C0BD7F403590B1E8C0A51C343574
:4038400009CFEAC0F7B92735F1EEECC0B5571B354711EFC0DEF50E350B36F1C0739402353E5DF3C07433F634DF86F5C0E3D2E934EEB2F7C0BE72DD346BE1F9C00813D134BE
:403880005712FCC0C0B3C434B045FEC0E754B834777B00C17EF6AB34ACB302C184989F344FEE04C1FA3A93345F2B07C1E1DD8634DD6A09C139817A34C8AC0BC104256E343C
:4038C00020F10DC140C96134E63710C1EF6D5534198112C111134934B9CC14C1A7B83C34C61A17C1B05E30343F6B19C12F05243426BE1BC122AC173479131EC18B530B34A6
:40390000396B20C16AFBFE3366C522C1BFA3F233FF2125C18C4CE633048127C1CFF5D93376E229C18B9FCD3353462CC1BF49C1339DAC2EC16CF4B433531531C1929FA833D0
:40394000758033C1324B9C3302EE35C14DF78F33FB5D38C1E2A3833360D03AC1F250773330453DC17EFE6A336CBC3FC186AC5E33133642C10B5B523325B244C10D0A463369
:40398000A33047C18DB939338BB149C18A692D33DF344CC1071A21339DBA4EC102CB1433C64251C17D7C08335ACD53C1772EFC32585A56C1F2E0EF32C1E958C1EF93E33260
:4039C000947B5BC16C47D732D10F5EC16BFBCA3278A660C1EDAFBE328A3F63C1F264B23205DB65C17A1AA632EB7868C185D099323A196BC115878D32F3BB6DC12A3E81329E
:403A0000156170C1C3F57432A10873C1E3AD683296B275C188665C32F45E78C1B51F5032BB0D7BC168D94332ECBE7DC1A3933732857280C1664E2B32882883C1B1091F3216
:403A4000F3E085C185C51232C69B88C1E381063203598BC1CB3EFA31A7188EC13DFCED31B4DA90C13ABAE131299F93C1C278D531066696C1D637C9314C2F99C177F7BC31DD
:403A8000F9FA9BC1A4B7B0310DC99EC15E78A4318A99A1C1A63998316E6CA4C17DFB8B31B941A7C1E2BD7F316C19AAC1D680733186F3ACC15944673107D0AFC16D085B31FD
:403AC000F0AEB2C111CD4E313F90B5C147924231F573B8C10D583631115ABBC1661E2A319442BEC151E51D317E2DC1C1CFAC1131CE1AC4C1E0740531840AC7C1863DF93098
:403B0000A0FCC9C1BF06ED3022F1CCC18DD0E0300AE8CFC1F19AD43058E1D2C1EA65C8300CDDD5C17A31BC3025DBD8C1A0FDAF30A3DBDBC15DCAA33087DEDEC1B2979730F9
:403B4000D0E3E1C19F658B307EEBE4C124347F3091F5E7C1420373300902EBC1FAD26630E510EEC14CA35A302722F1C138744E30CC35F4C1C0454230D64BF7C1E217363046
:403B80004564FAC1A1EA2930177FFDC1FBBD1D304E9C00C2F3911130E8BB03C287660530E6DD06C2BA3BF92F48020AC28A11ED2F0D290DC2F9E7E02F365210C208BFD42FDC
:403BC000C27D13C2B596C82FB1AB16C2036FBC2F03DC19C2F247B02FB80E1DC28121A42FD04320C2B2FB972F4B7B23C285D68B2F28B526C2FAB17F2F67F129C2128E732F27
:403C000009302DC2CE6A672F0D7130C22D485B2F73B433C230264F2F3BFA36C2D804432F65423AC226E4362FF18C3DC219C42A2FDED940C2B2A41E2F2C2944C2F285122F81
:403C4000DC7A47C2D967062FEDCE4AC2674AFA2E5E254EC29D2DEE2E317E51C27C11E22E65D954C204F6D52EF93658C235DBC92EEE965BC210C1BD2E43F95EC296A7B12E82
:403C8000F85D62C2C68EA52E0EC565C2A176992E832E69C2295F8D2E589A6CC25C48812E8E0870C23C32752E227973C2C91C692E16EC76C204085D2E6A617AC2EDF3502E9F
:403CC0001CD97DC284E0442E2E5381C2CBCD382E9FCF84C2C1BB2C2E6E4E88C267AA202E9CCF8BC2BD99142E29538FC2C489082E14D992C27C7AFC2D5D6196C2E66BF02D85
:403D000005EC99C2035EE42D0A799DC2D250D82D6D08A1C25444CC2D2E9AA4C28A38C02D4D2EA8C2742DB42DC9C4ABC21323A82DA25DAFC267199C2DD8F8B2C27010902DD0
:403D40006C96B6C22F08842D5C36BAC2A500782DA9D8BDC2D1F96B2D527DC1C2B5F35F2D5924C5C251EE532DBBCDC8C2A5E9472D7979CCC2B1E53B2D9427D0C277E22F2D4A
:403D80000AD8D3C2F7DF232DDD8AD7C231DE172D0A40DBC225DD0B2D94F7DEC2D4DCFF2C78B1E2C23FDDF32CB86DE6C266DEE72C532CEAC24AE0DB2C49EDEDC2EAE2CF2CB8
:403DC00099B0F1C248E6C32C4476F5C263EAB72C4A3EF9C23DEFAB2CA908FDC2D6F49F2C63D500C32EFB932C77A404C34502882CE57508C31D0A7C2CAD490CC3B512702CE2
:403E0000CE1F10C30E1C642C48F813C32926582C1CD317C306314C2C49B01BC3A53C402CCF8F1FC30849342CAE7123C32D56282CE55527C317641C2C753C2BC3C472102CBE
:403E40005E252FC33782042C9E1033C36F92F82B37FE36C36CA3EC2B27EE3AC32FB5E02B70E03EC3BAC7D42B10D542C30BDBC82B07CC46C323EFBC2B56C54AC30404B12B52
:403E8000FCC04EC3AD19A52BF9BE52C31F30992B4DBF56C35B478D2BF7C15AC3605F812BF8C65EC32F78752B50CE62C3CA91692BFDD766C32FAC5D2B01E46AC360C7512B94
:403EC0005BF26EC35DE3452B0A0373C327003A2B0F1677C3BE1D2E2B6A2B7BC3223C222B19437FC3545B162B1E5D83C3547B0A2B787987C3249CFE2A27988BC3C3BDF22A95
:403F00002AB98FC331E0E62A82DC93C37003DB2A2F0298C37F27CF2A2F2A9CC3604CC32A8454A0C31272B72A2C81A4C39698AB2A28B0A8C3EDBF9F2A78E1ACC317E8932A90
:403F40001B15B1C31411882A114BB5C3E53A7C2A5A83B9C38A65702AF6BDBDC30591642AE5FAC1C354BD582A263AC6C379EA4C2ABA7BCAC37418412AA0BFCEC34647352AA7
:403F8000D805D3C3EF76292A624ED7C370A71D2A3E99DBC3C8D8112A6CE6DFC3F90A062AEA35E4C3033EFA29BB87E8C3E671EE29DCDBECC3A3A6E2294E32F1C33BDCD6292E
:403FC000108BF5C3AD12CB2924E6F9C3FA49BF298843FEC32382B3293CA302C428BBA729400507C409F59B2994690BC4C72F902937D00FC4636B84292B3914C4DDA7782962
:404000006DA418C435E56C29FF111DC46C236129E08121C48262552910F425C478A249298F682AC44EE33D295CDF2EC405253229775833C49C672629E1D337C416AB1A29C0
:4040400099513CC471EF0E299ED140C4AF340329F25345C4CF7AF72892D849C4D3C1EB28805F4EC4BA09E028BCE852C48652D428447457C4379CC82819025CC4CDE6BC28B7
:404080003B9260C44832B128A92465C4A97EA52863B969C4F1CB992869506EC4201A8E28BCE972C4366982285A8577C434B9762844237CC41A0A6B2879C380C4E95B5F28BF
:4040C000F96585C4A1AE5328C40A8AC443024828DBB18EC4CF563C283C5B93C445AC3028E70698C4A7022528DDB49CC4F45919281C65A1C42DB20D28A617A6C4520B02287A
:404100007ACCAAC46465F6279783AFC463C0EA27FD3CB4C4501CDF27ADF8B8C42B79D327A6B6BDC4F4D6C727E876C2C4AD35BC277239C7C45595B02745FECBC4EDF5A4278E
:4041400060C5D0C476579927C38ED5C4EFB98D276F5ADAC4591D82276228DFC4B68176279CF8E3C404E76A271ECBE8C4454D5F27E79FEDC479B45327F776F2C4A11C48279B
:404180004E50F7C4BC853C27EC2BFCC4CCEF3027D00901C5D15A2527FBE905C5CBC619276BCC0AC5BB330E2721B10FC5A1A102271D9814C57E10F7265F8119C55280EB2670
:4041C000E66C1EC51DF1DF26B25A23C5E162D426C34A28C59CD5C826183D2DC55149BD26B33132C5FFBDB126912837C5A633A626B4213CC548AA9A261B1D41C5E5218F26E0
:40420000C61A46C57C9A8326B41A4BC510147826E51C50C59F8E6C265A2155C52A0A612612285AC5B38655260D315FC538044A264A3C64C5BC823E26CA4969C53E023326C9
:404240008C596EC5BE822726906B73C53D041C26D67F78C5BC8610265D967DC53B0A052626AF82C5BB8EF92531CA87C53B14EE257CE78CC5BC9AE225080792C54022D72533
:40428000D52897C5C5AACB25E34C9CC54D34C0253073A1C5D8BEB425BE9BA6C5674AA9258CC6ABC5F9D69D2599F3B0C590649225E622B6C52CF386257254BBC5CD827B2514
:4042C0003D88C0C57413702547BEC5C521A5642590F6CAC5D53759251831D0C58FCB4D25DD6DD5C551604225E1ACDAC51BF6362522EEDFC5EE8C2B25A131E5C5C924202571
:404300005E77EAC5ADBD142558BFEFC59B5709258F09F5C594F2FD240356FAC5968EF224B3A4FFC5A42BE724A0F504C6BDC9DB24C9480AC6E268D0242E9E0FC61409C52481
:40434000CFF514C652AAB924AC4F1AC69D4CAE24C4AB1FC6F6EFA224180A25C65D949724A66A2AC6D3398C246FCD2FC657E08024733235C6EB877524B1993AC68F306A246E
:40438000290340C643DA5E24DB6E45C607855324C7DC4AC6DD304824ED4C50C6C4DD3C244CBF55C6BE8B3124E4335BC6C93A2624B5AA60C6E8EA1A24BE2366C61A9C0F2485
:4043C000019F6BC6604E04247B1C71C6BA01F9232E9C76C628B6ED23181E7CC6AC6BE2233AA281C64522D723942887C6F4D9CB2324B18CC6B992C023EC3B92C6954CB52314
:40440000EBC897C68807AA2320589DC693C39E238BE9A2C6B68093232D7DA8C6F23E88230413AEC647FE7C2312ABB3C6B5BE71235445B9C63C806623CDE1BEC6DF425B2389
:404440007A80C4C69B0650235C21CAC673CB442372C4CFC667913923BE69D5C676582E233D11DBC6A2202323F0BAE0C6EBE91723D766E6C651B40C23F214ECC6D57F012350
:4044800040C5F1C6774CF622C177F7C6371AEB22752CFDC617E9DF225CE302C716B9D422759C08C7358AC922C0570EC7745CBE223E1514C7D42FB322EDD419C75604A822EF
:4044C000CE961FC7F8D99C22E05A25C7BDB0912223212BC7A488862297E930C7AF617B223CB436C7DC3B702211813CC72E176522165042C7A3F359224C2148C73DD14E22FE
:40450000B1F44DC7FCAF432246CA53C7E18F38220AA259C7EB702D22FE7B5FC71C532222205865C77436172271366BC7F31A0C22F01671C7990001229DF976C768E7F52129
:4045400079DE7CC75FCFEA2182C582C77FB8DF21B9AE88C7C8A2D4211D9A8EC73B8EC921AE8794C7D87ABE216C779AC7A068B3215769A0C79357A8216E5DA6C7B1479D2124
:40458000B153ACC7FB389221204CB2C7722B8721BA46B8C7151F7C218143BEC7E51371217242C4C7E30966218F43CAC710015B21D646D0C76AF94F21474CD6C7F3F24421AF
:4045C000E353DCC7ACED3921AA5DE2C795E92E219A69E8C7ADE62321B377EEC7F6E41821F687F4C770E40D21629AFAC71CE50221F7AE00C8F9E6F720B5C506C809EAEC20B2
:404600009BDE0CC84BEEE120A9F912C8C1F3D620DF1619C86AFACB203D361FC84702C120C35725C8580BB620707B2BC89E15AB2043A131C81A21A0203EC937C8CB2D9520FD
:404640005FF33DC8B23B8A20A61F44C8CF4A7F20144E4AC8245B7420A77E50C8B06C692060B156C8747F5E203EE65CC86F935320421D63C8A4A848206A5669C811BF3D20A1
:40468000B7916FC8B8D6322028CF75C899EF2720BD0E7CC8B4091D20775082C80A251220549488C89B41072054DA8EC8675FFC1F782295C8707EF11FBF6C9BC8B49EE61FA3
:4046C00028B9A1C836C0DB1FB407A8C8F5E2D01F6258AEC8F106C61F32ABB4C82C2CBB1F2300BBC8A552B01F3657C1C85D7AA51F6BB0C7C854A39A1FC00BCEC88BCD8F1F1A
:404700003669D4C802F9841FCDC8DAC8BA257A1F842AE1C8B3536F1F5B8EE7C8ED82641F52F4EDC869B3591F685CF4C827E54E1F9EC6FAC82818441FF23201C96B4C391F2E
:4047400066A107C9F3812E1FF7110EC9BEB8231FA88414C9CEF0181F76F91AC9222A0E1F627021C9BC64031F6BE927C99BA0F81E92642EC9C0DDED1ED6E134C92B1CE31E1D
:4047800037613BC9DD5BD81EB4E241C9D79CCD1E4D6648C918DFC21E03EC4EC9A122B81ED47355C97367AD1EC1FD5BC98DADA21EC98962C9F1F4971EEC1769C99E3D8D1E3F
:4047C0002AA86FC99687821E833A76C9D8D2771EF5CE7CC9651F6D1E826583C93E6D621E29FE89C962BC571EE99890C9D20C4D1EC23597C98F5E421EB4D49DC999B1371EE2
:40480000BF75A4C9F1052D1EE318ABC9965B221E1EBEB1C98AB2171E7265B8C9CC0A0D1EDD0EBFC95D64021E60BAC5C93EBFF71DFA67CCC96E1BED1DAB17D3C9EF78E21D7C
:4048400073C9D9C9C1D7D71D517DE0C9E437CD1D4633E7C95899C21D50EBEDC91EFCB71D70A5F4C93660AD1DA561FBC9A2C5A21DEF1F02CA602C981D4FE008CA72948D1D8C
:40488000C3A20FCAD8FD821D4B6716CA9268781DE72D1DCAA2D46D1D98F623CA0642631D5BC12ACAC0B0581D328E31CAD0204E1D1D5D38CA3692431D192E3FCAF404391D9A
:4048C000290146CA08792E1D4BD64CCA74EE231D7EAD53CA3865191DC4865ACA55DD0E1D1B6261CACA56041D833F68CA99D1F91CFC1E6FCAC24DEF1C860076CA44CBE41C55
:4049000020E47CCA214ADA1CCAC983CA59CACF1C84B18ACAEC4BC51C4E9B91CADBCEBA1C278798CA2653B01C0F759FCACDD8A51C0665A6CAD25F9B1C0C57ADCA34E8901C6D
:404940001F4BB4CAF371861C4141BBCA11FD7B1C7139C2CA8D89711CAE33C9CA6817671CF82FD0CAA2A65C1C4F2ED7CA3C37521CB32EDECA36C9471C2331E5CA915C3D1C9A
:40498000A035ECCA4DF1321C283CF3CA6A87281CBC44FACAE91E1E1C5B4F01CBC9B7131C055C08CB0D52091CBA6A0FCBB3EDFE1B797B16CBBD8AF41B438E1DCB2B29EA1BB4
:4049C00016A324CBFCC8DF1BF4B92BCB326AD51BDAD232CBCE0CCB1BCAED39CBCEB0C01BC30A41CB3456B61BC42948CB01FDAB1BCD4A4FCB34A5A11BDF6D56CBCE4E971BAC
:404A0000F8925DCBCFF98C1B19BA64CB38A6821B41E36BCB0954781B700E73CB42036E1BA53B7ACBE5B3631BE16A81CBF165591B239C88CB67194F1B6BCF8FCB46CE441B65
:404A4000B90497CB91843A1B0B3C9ECB463C301B6375A5CB66F5251BBFB0ACCBF2AF1B1B20EEB3CBEB6B111B852DBBCB5029071BEE6EC2CB21E8FC1A5AB2C9CB60A8F21AF3
:404A8000CAF7D0CB0D6AE81A3D3FD8CB282DDE1AB388DFCBB1F1D31A2BD4E6CBA9B7C91AA521EECB117FBF1A2171F5CBE847B51A9FC2FCCB2F12AB1A1E1604CCE7DDA01A66
:404AC0009E6B0BCC0FAB961A1FC312CCA9798C1AA01C1ACCB449821A227821CC311B781AA3D528CC21EE6D1A243530CC84C2631AA59637CC5998591A25FA3ECCA36F4F1AE4
:404B0000A35F46CC6048451A20C74DCC92223B1A9B3055CC38FE301A149C5CCC54DB261A8B0964CCE5B91C1AFF786BCCEC99121A70EA72CC697B081ADE5D7ACC5E5EFE19B5
:404B400049D381CCC942F419AF4A89CCAC28EA1912C490CC0610E019703F98CCD9F8D519CABC9FCC25E3CB191E3CA7CCE9CEC1196EBDAECC27BCB719B840B6CCDFAAAD1920
:404B8000FCC5BDCC119BA3193A4DC5CCBE8C991971D6CCCCE67F8F19A261D4CC89748519CCEEDBCCA86A7B19EF7DE3CC436271190A0FEBCC5A5B67191DA2F2CCEF555D1978
:404BC0002937FACC015253192BCE01CD904F4919256709CD9E4E3F19160211CD2A4F3519FE9E18CD35512B19DC3D20CDBF542119B0DE27CDC95917197B812FCD53600D1922
:404C00003A2637CD5D680319EFCC3ECDE871F918997546CDF47CEF1837204ECD8289E518CACC55CD9297DB18507B5DCD24A7D118CB2B65CD38B8C71839DE6CCDD0CABD18BA
:404C40009A9274CDEBDEB318EE487CCD8AF4A918340184CDAE0BA0186DBB8BCD56249618987793CD833E8C18B4359BCD355A8218C2F5A2CD6D777818C0B7AACD2B966E18B9
:404C8000B07BB2CD70B664189041BACD3CD85A186009C2CD8EFB501820D3C9CD69204718D09ED1CDCC463D186F6CD9CDB76E3318FD3BE1CD2B982918790DE9CD28C31F18C4
:404CC000E4E0F0CDAEEF15183DB6F8CDBF1D0C18848D00CE594D0218B86608CE7F7EF817D94110CE30B1EE17E81E18CE6CE5E417E2FD1FCE341BDB17C9DE27CE8852D11791
:404D00009CC12FCE688BC7175BA637CED6C5BD17058D3FCED101B4179A7547CE5A3FAA1719604FCE707EA017844C57CE16BF9617D83A5FCE4A018D17162B67CE0D458317D7
:404D40003D1D6FCE608A79174E1177CE43D16F1748077FCEB61966172AFF86CEBA635C17F4F88ECE4FAF5217A7F496CE75FC481741F29ECE2E4B3F17C2F1A6CE789B35177D
:404D80002BF3AECE55ED2B177AF6B6CEC5402217B0FBBECEC9951817CB02C7CE60EC0E17CD0BCFCE8B440517B416D7CE4B9EFB168023DFCE9FF9F1163132E7CE8956E8165F
:404DC000C742EFCE08B5DE164155F7CE1D15D5169F69FFCEC976CB16E17F07CF0BDAC11605980FCFE43EB8160DB217CF55A5AE16F8CD1FCF5D0DA516C5EB27CFFE769B166C
:404E0000740B30CF37E29116052D38CF094F8816775040CF74BD7E16CA7548CF792D7516FE9C50CF189F6B1613C658CF5112621608F160CF25875816DD1D69CF94FD4E16AE
:404E4000914C71CF9F754516247D79CF46EF3B1697AF81CF886A3216E8E389CF67E72816171A92CFE4651F1625529ACFFDE51516108CA2CFB4670C16D8C7AACF0AEB02164C
:404E80007D05B3CFFD6FF9150045BBCF90F6EF155E86C3CFC17EE61599C9CBCF9208DD15AF0ED4CF0394D315A155DCCF1521CA156D9EE4CFC6AFC01515E9ECCF1940B71568
:404EC0009735F5CF0DD2AD15F483FDCFA365A4152AD405D0DBFA9A1539260ED0B5919115227A16D0322A8815E4CF1ED052C47E157E2727D016607515F1802FD07DFD6B1532
:404F00003BDC37D0899C62155D3940D03A3D5915569848D08FDF4F1526F950D089834615CD5B59D02A293D154AC061D070D033159D266AD05D792A15C68E72D0F023211504
:404F4000C4F87AD02BD01715976483D00D7E0E153FD28BD0972D0515BB4194D0C9DEFB140BB39CD0A491F2142F26A5D02746E914269BADD054FCDF14F111B6D02BB4D6143D
:404F80008D8ABED0AB6DCD14FD04C7D0D628C4143E81CFD0ABE5BA1451FFD7D02CA4B114367FE0D05864A814EC00E9D030269F147284F1D0B3E99514C909FAD0E4AE8C1448
:404FC000F09002D1C1758314E7190BD14B3E7A14ADA413D18308711442311CD169D46714A6BF24D1FDA15E14D94F2DD140715514D9E135D132424C14A8753ED1D314431499
:40500000440B47D123E93914ADA24FD124BF3014E23B58D1D5962714E5D660D137701E14B37369D14A4B15144D1272D10E280C14B3B27AD184060314E45483D1ADE6F913D7
:40504000E0F88BD187C8F013A69E94D115ACE71336469DD15691DE1390EFA5D14A78D513B49AAED1F260CC13A047B7D14F4BC31356F6BFD16037BA13D4A6C8D12625B113A6
:405080001A59D1D1A214A813280DDAD1D3059F13FDC2E2D1BAF895139A7AEBD157ED8C13FD33F4D1ABE3831327EFFCD1B6DB7A1317AC05D279D57113CC6A0ED2F3D06813A7
:4050C000482B17D226CE5F1388ED1FD211CD56138DB128D2B4CD4D13567731D211D04413E43E3AD227D43B13350843D2F7D932134AD34BD281E1291321A054D2C6EA2013A0
:40510000BC6E5DD2C6F51713193F66D280020F1338116FD2F710061318E577D22921FD12BBBA80D21833F4121E9289D2C346EB12416B92D22B5CE21226469BD25073D91279
:40514000CA22A4D2338CD0122E01ADD2D4A6C71251E1B5D233C3BE1233C3BED251E1B512D4A6C7D22E01AD12338CD0D2CA22A4125073D9D226469B122B5CE2D2416B921217
:40518000C346EBD21E9289121833F4D2BBBA80122921FDD218E57712F71006D338116F1280020FD3193F6612C6F517D3BC6E5D12C6EA20D321A0541281E129D34AD34B1269
:4051C000F7D932D33508431227D43BD3E43E3A1211D044D356773112B4CD4DD38DB1281211CD56D388ED1F1226CE5FD3482B1712F3D068D3CC6A0E1279D571D317AC051281
:40520000B6DB7AD327EFFC11ABE383D3FD33F41157ED8CD39A7AEB11BAF895D3FDC2E211D3059FD3280DDA11A214A8D31A59D1112625B1D3D4A6C8116037BAD356F6BF1183
:405240004F4BC3D3A047B711F260CCD3B49AAE114A78D5D390EFA5115691DED336469D1115ACE7D3A69E941187C8F0D3E0F88B11ADE6F9D3E4548311840603D4B3B27A118A
:405280000E280CD44D1272114A4B15D4B373691137701ED4E5D66011D59627D4E23B581124BF30D4ADA24F1123E939D4440B4711D31443D4A8753E1132424CD4D9E13511D3
:4052C000407155D4D94F2D11FDA15ED4A6BF241169D467D442311C11830871D4ADA413114B3E7AD4E7190B11C17583D4F0900211E4AE8CD4C909FA10B3E995D47284F110CA
:4053000030269FD4EC00E9105864A8D4367FE0102CA4B1D451FFD710ABE5BAD43E81CF10D628C4D4FD04C710AB6DCDD48D8ABE102BB4D6D4F111B61054FCDFD4269BAD10BC
:405340002746E9D42F26A510A491F2D40BB39C10C9DEFBD4BB419410972D05D53FD28B100D7E0ED5976483102BD017D5C4F87A10F02321D5C68E72105D792AD59D266A101A
:4053800070D033D54AC061102A293DD5CD5B5910898346D526F950108FDF4FD5569848103A3D59D55D394010899C62D53BDC37107DFD6BD5F1802F10166075D57E2727106B
:4053C00052C47ED5E4CF1E10322A88D5227A1610B59191D539260E10DBFA9AD52AD40510A365A4D5F483FD0F0DD2ADD59735F50F1940B7D515E9EC0FC6AFC0D56D9EE40F4D
:405400001521CAD5A155DC0F0394D3D5AF0ED40F9208DDD599C9CB0FC17EE6D55E86C30F90F6EFD50045BB0FFD6FF9D57D05B30F0AEB02D6D8C7AA0FB4670CD6108CA20F59
:40544000FDE515D625529A0FE4651FD6171A920F67E728D6E8E3890F886A32D697AF810F46EF3BD6247D790F9F7545D6914C710F94FD4ED6DD1D690F258758D608F1600F4C
:40548000511262D613C6580F189F6BD6FE9C500F792D75D6CA75480F74BD7ED67750400F094F88D6052D380F37E291D6740B300FFE769BD6C5EB270F5D0DA5D6F8CD1F0FEE
:4054C00055A5AED60DB2170FE43EB8D605980F0F0BDAC1D6E17F070FC976CBD69F69FF0E1D15D5D64155F70E08B5DED6C742EF0E8956E8D63132E70E9FF9F1D68023DF0E24
:405500004B9EFBD6B416D70E8B4405D7CD0BCF0E60EC0ED7CB02C70EC99518D7B0FBBE0EC54022D77AF6B60E55ED2BD72BF3AE0E789B35D7C2F1A60E2E4B3FD741F29E0EC7
:4055400075FC48D7A7F4960E4FAF52D7F4F88E0EBA635CD72AFF860EB61966D748077F0E43D16FD74E11770E608A79D73D1D6F0E0D4583D7162B670E4A018DD7D83A5F0ED9
:4055800016BF96D7844C570E707EA0D719604F0E5A3FAAD79A75470ED101B4D7058D3F0ED6C5BDD75BA6370E688BC7D79CC12F0E8852D1D7C9DE270E341BDBD7E2FD1F0E74
:4055C0006CE5E4D7E81E180E30B1EED7D941100E7F7EF8D7B866080E594D02D8848D000EBF1D0CD83DB6F80DAEEF15D8E4E0F00D28C31FD8790DE90D2B9829D8FD3BE10DAB
:40560000B76E33D86F6CD90DCC463DD8D09ED10D692047D820D3C90D8EFB50D86009C20D3CD85AD89041BA0D70B664D8B07BB20D2B966ED8C0B7AA0D6D7778D8C2F5A20DB3
:40564000355A82D8B4359B0D833E8CD89877930D562496D86DBB8B0DAE0BA0D83401840D8AF4A9D8EE487C0DEBDEB3D89A92740DD0CABDD839DE6C0D38B8C7D8CB2B650DC8
:4056800024A7D1D8507B5D0D9297DBD8CACC550D8289E5D837204E0DF47CEFD89975460DE871F9D8EFCC3E0D5D6803D93A26370D53600DD97B812F0DC95917D9B0DE270D41
:4056C000BF5421D9DC3D200D35512BD9FE9E180D2A4F35D91602110D9E4E3FD92567090D904F49D92BCE010D015253D92937FA0CEF555DD91DA2F20C5A5B67D90A0FEB0C80
:40570000436271D9EF7DE30CA86A7BD9CCEEDB0C897485D9A261D40CE67F8FD971D6CC0CBE8C99D93A4DC50C119BA3D9FCC5BD0CDFAAADD9B840B60C27BCB7D96EBDAE0C07
:40574000E9CEC1D91E3CA70C25E3CBD9CABC9F0CD9F8D5D9703F980C0610E0D912C4900CAC28EAD9AF4A890CC942F4D949D3810C5E5EFED9DE5D7A0C697B08DA70EA720C43
:40578000EC9912DAFF786B0CE5B91CDA8B09640C54DB26DA149C5C0C38FE30DA9B30550C92223BDA20C74D0C604845DAA35F460CA36F4FDA25FA3E0C599859DAA596370CD5
:4057C00084C263DA2435300C21EE6DDAA3D5280C311B78DA2278210CB44982DAA01C1A0CA9798CDA1FC3120C0FAB96DA9E6B0B0CE7DDA0DA1E16040C2F12ABDA9FC2FC0B6D
:40580000E847B5DA2171F50B117FBFDAA521EE0BA9B7C9DA2BD4E60BB1F1D3DAB388DF0B282DDEDA3D3FD80B0D6AE8DACAF7D00B60A8F2DA5AB2C90B21E8FCDAEE6EC20BCC
:40584000502907DB852DBB0BEB6B11DB20EEB30BF2AF1BDBBFB0AC0B66F525DB6375A50B463C30DB0B3C9E0B91843ADBB904970B46CE44DB6BCF8F0B67194FDB239C880B9E
:40588000F16559DBE16A810BE5B363DBA53B7A0B42036EDB700E730B095478DB41E36B0B38A682DB19BA640BCFF98CDBF8925D0BCE4E97DBDF6D560B34A5A1DBCD4A4F0BD9
:4058C00001FDABDBC429480B3456B6DBC30A410BCEB0C0DBCAED390BCE0CCBDBDAD2320B326AD5DBF4B92B0BFCC8DFDB16A3240B2B29EADB438E1D0BBD8AF4DB797B160B61
:40590000B3EDFEDBBA6A0F0B0D5209DC055C080BC9B713DC5B4F010BE91E1EDCBC44FA0A6A8728DC283CF30A4DF132DCA035EC0A915C3DDC2331E50A36C947DCB32EDE0A2D
:405940003C3752DC4F2ED70AA2A65CDCF82FD00A681767DCAE33C90A8D8971DC7139C20A11FD7BDC4141BB0AF37186DC1F4BB40A34E890DC0C57AD0AD25F9BDC0665A60A59
:40598000CDD8A5DC0F759F0A2653B0DC2787980ADBCEBADC4E9B910AEC4BC5DC84B18A0A59CACFDCCAC9830A214ADADC20E47C0A44CBE4DC8600760AC24DEFDCFC1E6F0A00
:4059C00099D1F9DC833F680ACA5604DD1B62610A55DD0EDDC4865A0A386519DD7EAD530A74EE23DD4BD64C0A08792EDD2901460AF40439DD192E3F0A369243DD1D5D380A44
:405A0000D0204EDD328E310AC0B058DD5BC12A0A064263DD98F6230AA2D46DDDE72D1D0A926878DD4B67160AD8FD82DDC3A20F0A72948DDD4FE0080A602C98DDEF1F020A7E
:405A4000A2C5A2DDA561FB093660ADDD70A5F4091EFCB7DD50EBED095899C2DD4633E709E437CDDD517DE009C1D7D7DD73C9D909EF78E2DDAB17D3096E1BEDDDFA67CC09F9
:405A80003EBFF7DD60BAC5095D6402DEDD0EBF09CC0A0DDE7265B8098AB217DE1EBEB109965B22DEE318AB09F1052DDEBF75A40999B137DEB4D49D098F5E42DEC235970906
:405AC000D20C4DDEE998900962BC57DE29FE89093E6D62DE82658309651F6DDEF5CE7C09D8D277DE833A7609968782DE2AA86F099E3D8DDEEC176909F1F497DEC98962092E
:405B00008DADA2DEC1FD5B097367ADDED4735509A122B8DE03EC4E0918DFC2DE4D664809D79CCDDEB4E24109DD5BD8DE37613B092B1CE3DED6E13409C0DDEDDE92642E09EC
:405B40009BA0F8DE6BE92709BC6403DF62702109222A0EDF76F91A09CEF018DFA8841409BEB823DFF7110E09F3812EDF66A107096B4C39DFF2320109281844DF9EC6FA08D4
:405B800027E54EDF685CF40869B359DF52F4ED08ED8264DF5B8EE708B3536FDF842AE108BA257ADFCDC8DA0802F984DF3669D4088BCD8FDFC00BCE0854A39ADF6BB0C7089F
:405BC0005D7AA5DF3657C108A552B0DF2300BB082C2CBBDF32ABB408F106C6DF6258AE08F5E2D0DFB407A80836C0DBDF28B9A108B49EE6DFBF6C9B08707EF1DF78229508EC
:405C0000675FFCDF54DA8E089B4107E0549488080A2512E077508208B4091DE0BD0E7C0899EF27E028CF7508B8D632E0B7916F0811BF3DE06A566908A4A848E0421D63088B
:405C40006F9353E03EE65C08747F5EE060B15608B06C69E0A77E5008245B74E0144E4A08CF4A7FE0A61F4408B23B8AE05FF33D08CB2D95E03EC937081A21A0E043A131085C
:405C80009E15ABE0707B2B08580BB6E0C35725084702C1E03D361F086AFACBE0DF161908C1F3D6E0A9F912084BEEE1E09BDE0C0809EAECE0B5C50608F9E6F7E0F7AE000848
:405CC0001CE502E1629AFA0770E40DE1F687F407F6E418E1B377EE07ADE623E19A69E80795E92EE1AA5DE207ACED39E1E353DC07F3F244E1474CD6076AF94FE1D646D00745
:405D000010015BE18F43CA07E30966E17242C407E51371E18143BE07151F7CE1BA46B807722B87E1204CB207FB3892E1B153AC07B1479DE16E5DA6079357A8E15769A0074F
:405D4000A068B3E16C779A07D87ABEE1AE8794073B8EC9E11D9A8E07C8A2D4E1B9AE88077FB8DFE182C582075FCFEAE179DE7C0768E7F5E19DF97607990001E2F0167107A2
:405D8000F31A0CE271366B07743617E2205865071C5322E2FE7B5F07EB702DE20AA25907E18F38E246CA5307FCAF43E2B1F44D073DD14EE24C214807A3F359E21650420749
:405DC0002E1765E211813C07DC3B70E23CB43607AF617BE297E93007A48886E223212B07BDB091E2E05A2507F8D99CE2CE961F075604A8E2EDD41907D42FB3E23E15140794
:405E0000745CBEE2C0570E07358AC9E2759C080716B9D4E25CE3020717E9DFE2752CFD06371AEBE2C177F706774CF6E240C5F106D57F01E3F214EC0651B40CE3D766E606D3
:405E4000EBE917E3F0BAE006A22023E33D11DB0676582EE3BE69D506679139E372C4CF0673CB44E35C21CA069B0650E37A80C406DF425BE3CDE1BE063C8066E35445B90655
:405E8000B5BE71E312ABB30647FE7CE30413AE06F23E88E32D7DA806B68093E38BE9A20693C39EE320589D068807AAE3EBC89706954CB5E3EC3B9206B992C0E324B18C0690
:405EC000F4D9CBE3942887064522D7E33AA28106AC6BE2E3181E7C0628B6EDE32E9C7606BA01F9E37B1C7106604E04E4019F6B061A9C0FE4BE236606E8EA1AE4B5AA6006FB
:405F0000C93A26E4E4335B06BE8B31E44CBF5506C4DD3CE4ED4C5006DD3048E4C7DC4A06078553E4DB6E450643DA5EE4290340068F306AE4B1993A06EB8775E47332350632
:405F400057E080E46FCD2F06D3398CE4A66A2A065D9497E4180A2506F6EFA2E4C4AB1F069D4CAEE4AC4F1A0652AAB9E4CFF514061409C5E42E9E0F06E268D0E4C9480A06CE
:405F8000BDC9DBE4A0F50406A42BE7E4B3A4FF05968EF2E40356FA0594F2FDE48F09F5059B5709E558BFEF05ADBD14E55E77EA05C92420E5A131E505EE8C2BE522EEDF057F
:405FC0001BF636E5E1ACDA05516042E5DD6DD5058FCB4DE51831D005D53759E590F6CA0521A564E547BEC505741370E53D88C005CD827BE57254BB052CF386E5E622B605FE
:40600000906492E599F3B005F9D69DE58CC6AB05674AA9E5BE9BA605D8BEB4E53073A1054D34C0E5E34C9C05C5AACBE5D52897054022D7E508079205BC9AE2E57CE78C0523
:406040003B14EEE531CA8705BB8EF9E526AF82053B0A05E65D967D05BC8610E6D67F78053D041CE6906B7305BE8227E68C596E053E0233E6CA496905BC823EE64A3C6405BF
:4060800038044AE60D315F05B38655E612285A052A0A61E65A2155059F8E6CE6E51C5005101478E6B41A4B057C9A83E6C61A4605E5218FE61B1D410548AA9AE6B4213C05D5
:4060C000A633A6E691283705FFBDB1E6B33132055149BDE6183D2D059CD5C8E6C34A2805E162D4E6B25A23051DF1DFE6E66C1E055280EBE65F8119057E10F7E61D98140568
:40610000A1A102E721B10F05BB330EE76BCC0A05CBC619E7FBE90505D15A25E7D0090105CCEF30E7EC2BFC04BC853CE74E50F704A11C48E7F776F20479B453E7E79FED047D
:40614000454D5FE71ECBE80404E76AE79CF8E304B68176E76228DF04591D82E76F5ADA04EFB98DE7C38ED504765799E760C5D004EDF5A4E745FECB045595B0E77239C70432
:40618000AD35BCE7E876C204F4D6C7E7A6B6BD042B79D3E7ADF8B804501CDFE7FD3CB40463C0EAE79783AF046465F6E77ACCAA04520B02E8A617A6042DB20DE81C65A104BC
:4061C000F45919E8DDB49C04A70225E8E706980445AC30E83C5B9304CF563CE8DBB18E04430248E8C40A8A04A1AE53E8F9658504E95B5FE879C380041A0A6BE844237C0458
:4062000034B976E85A857704366982E8BCE97204201A8EE869506E04F1CB99E863B96904A97EA5E8A92465044832B1E83B926004CDE6BCE819025C04379CC8E8447457045E
:406240008652D4E8BCE85204BA09E0E8805F4E04D3C1EBE892D84904CF7AF7E8F2534504AF3403E99ED1400471EF0EE999513C0416AB1AE9E1D337049C6726E97758330432
:40628000052532E95CDF2E044EE33DE98F682A0478A249E910F42504826255E9E08121046C2361E9FF111D0435E56CE96DA41804DDA778E92B391404636B84E937D00F0433
:4062C000C72F90E994690B0409F59BE94005070428BBA7E93CA302042382B3E98843FE03FA49BFE924E6F903AD12CBE9108BF5033BDCD6E94E32F103A3A6E2E9DCDBEC03F1
:40630000E671EEE9BB87E803033EFAE9EA35E403F90A06EA6CE6DF03C8D811EA3E99DB0370A71DEA624ED703EF7629EAD805D303464735EAA0BFCE03741841EABA7BCA03F9
:4063400079EA4CEA263AC60354BD58EAE5FAC103059164EAF6BDBD038A6570EA5A83B903E53A7CEA114BB503141188EA1B15B10317E893EA78E1AC03EDBF9FEA28B0A803DC
:406380009698ABEA2C81A4031272B7EA8454A003604CC3EA2F2A9C037F27CFEA2F0298037003DBEA82DC930331E0E6EA2AB98F03C3BDF2EA27988B03249CFEEA787987035C
:4063C000547B0AEB1E5D8303545B16EB19437F03223C22EB6A2B7B03BE1D2EEB0F16770327003AEB0A0373035DE345EB5BF26E0360C751EB01E46A032FAC5DEBFDD7660327
:40640000CA9169EB50CE62032F7875EBF8C65E03605F81EBF7C15A035B478DEB4DBF56031F3099EBF9BE5203AD19A5EBFCC04E030404B1EB56C54A0323EFBCEB07CC460322
:406440000BDBC8EB10D54203BAC7D4EB70E03E032FB5E0EB27EE3A036CA3ECEB37FE36036F92F8EB9E103303378204EC5E252F03C47210EC753C2B0317641CECE555270315
:406480002D5628ECAE712303084934ECCF8F1F03A53C40EC49B01B0306314CEC1CD31703292658EC48F813030E1C64ECCE1F1003B51270ECAD490C031D0A7CECE5750803F4
:4064C000450288EC77A404032EFB93EC63D50003D6F49FECA908FD023DEFABEC4A3EF90263EAB7EC4476F50248E6C3EC99B0F102EAE2CFEC49EDED024AE0DBEC532CEA02CF
:4065000066DEE7ECB86DE6023FDDF3EC78B1E202D4DCFFEC94F7DE0225DD0BED0A40DB0231DE17EDDD8AD702F7DF23ED0AD8D30277E22FED9427D002B1E53BED7979CC0298
:40654000A5E947EDBBCDC80251EE53ED5924C502B5F35FED527DC102D1F96BEDA9D8BD02A50078ED5C36BA022F0884ED6C96B602701090EDD8F8B20267199CEDA25DAF0268
:406580001323A8EDC9C4AB02742DB4ED4D2EA8028A38C0ED2E9AA4025444CCED6D08A102D250D8ED0A799D02035EE4ED05EC9902E66BF0ED5D6196027C7AFCED14D992027E
:4065C000C48908EE29538F02BD9914EE9CCF8B0267AA20EE6E4E8802C1BB2CEE9FCF8402CBCD38EE2E53810284E044EE1CD97D02EDF350EE6A617A0204085DEE16EC76020A
:40660000C91C69EE227973023C3275EE8E0870025C4881EE589A6C02295F8DEE832E6902A17699EE0EC56502C68EA5EEF85D620296A7B1EE43F95E0210C1BDEEEE965B0256
:4066400035DBC9EEF936580204F6D5EE65D954027C11E2EE317E51029D2DEEEE5E254E02674AFAEEEDCE4A02D96706EFDC7A4702F28512EF2C294402B2A41EEFDED94002BE
:4066800019C42AEFF18C3D0226E436EF65423A02D80443EF3BFA360230264FEF73B433022D485BEF0D713002CE6A67EF09302D02128E73EF67F12902FAB17FEF28B52602A3
:4066C00085D68BEF4B7B2302B2FB97EFD04320028121A4EFB80E1D02F247B0EF03DC1902036FBCEFB1AB1602B596C8EFC27D130208BFD4EF36521002F9E7E0EF0D290D0287
:406700008A11EDEF48020A02BA3BF9EFE6DD0602876605F0E8BB0302F39111F04E9C0002FBBD1DF0177FFD01A1EA29F04564FA01E21736F0D64BF701C04542F0CC35F401E3
:4067400038744EF02722F1014CA35AF0E510EE01FAD266F00902EB01420373F091F5E70124347FF07EEBE4019F658BF0D0E3E101B29797F087DEDE015DCAA3F0A3DBDB0157
:40678000A0FDAFF025DBD8017A31BCF00CDDD501EA65C8F058E1D201F19AD4F00AE8CF018DD0E0F022F1CC01BF06EDF0A0FCC901863DF9F0840AC701E07405F1CE1AC4017C
:4067C000CFAC11F17E2DC10151E51DF19442BE01661E2AF1115ABB010D5836F1F573B801479242F13F90B50111CD4EF1F0AEB2016D085BF107D0AF01594467F186F3AC0101
:40680000D68073F16C19AA01E2BD7FF1B941A7017DFB8BF16E6CA401A63998F18A99A1015E78A4F10DC99E01A4B7B0F1F9FA9B0177F7BCF14C2F9901D637C9F106669601B8
:40684000C278D5F1299F93013ABAE1F1B4DA90013DFCEDF1A7188E01CB3EFAF103598B01E38106F2C69B880185C512F2F3E08501B1091FF288288301664E2BF28572800161
:40688000A39337F2ECBE7D0168D943F2BB0D7B01B51F50F2F45E780188665CF296B27501E3AD68F2A1087301C3F574F2156170012A3E81F2F3BB6D0115878DF23A196B01DF
:4068C00085D099F2EB7868017A1AA6F205DB6501F264B2F28A3F6301EDAFBEF278A660016BFBCAF2D10F5E016C47D7F2947B5B01EF93E3F2C1E95801F2E0EFF2585A56012A
:40690000772EFCF25ACD53017D7C08F3C642510102CB14F39DBA4E01071A21F3DF344C018A692DF38BB149018DB939F3A33047010D0A46F325B244010B5B52F31336420123
:4069400086AC5EF36CBC3F017EFE6AF330453D01F25077F360D03A01E2A383F3FB5D38014DF78FF302EE3501324B9CF375803301929FA8F3531531016CF4B4F39DAC2E01F7
:40698000BF49C1F353462C018B9FCDF376E22901CFF5D9F3048127018C4CE6F3FF212501BFA3F2F366C522016AFBFEF3396B20018B530BF479131E0122AC17F426BE1B01A4
:4069C0002F0524F43F6B1901B05E30F4C61A1701A7B83CF4B9CC1401111349F419811201EF6D55F4E637100140C961F420F10D0104256EF4C8AC0B0139817AF4DD6A090152
:406A0000E1DD86F45F2B0701FA3A93F44FEE040184989FF4ACB302017EF6ABF4777B0001E754B8F4B045FE00C0B3C4F45712FC000813D1F46BE1F900BE72DDF4EEB2F70051
:406A4000E3D2E9F4DF86F5007433F6F43E5DF300739402F50B36F100DEF50EF54711EF00B5571BF5F1EEEC00F7B927F509CFEA00A51C34F590B1E800BD7F40F58696E600C3
:406A80003FE34CF5EB7DE4002B4759F5BE67E20080AB65F50154E0003D1072F5B242DE0063757EF5D233DC00F0DA8AF56227DA00E54097F5611DD80040A7A3F5CF15D60008
:406AC000020EB0F5AD10D4002975BCF5FA0DD200B6DCC8F5B60DD000A744D5F5E30FCE00FDACE1F57F14CC00B715EEF58A1BCA00D47EFAF50625C80054E806F6F230C60081
:406B0000375213F64D3FC4007BBC1FF61950C20021272CF65563C000289238F60179BE008FFD44F61D91BC00566951F6AAABBA007DD55DF6A7C8B80003426AF615E8B60091
:406B4000E8AE76F6F309B5002B1C83F6422EB300CB898FF60255B100C9F79BF6337EAF002366A8F6D4A9AD00D9D4B4F6E6D7AB00EC43C1F66A08AA0059B3CDF65E3BA800CB
:406B80002123DAF6C470A6004493E6F69BA8A400C003F3F6E3E2A2009674FFF69D1FA100C4E50BF7C85E9F004B5718F765A09D002AC924F773E49B00603B31F7F32A9A00A1
:406BC000EDAD3DF7E4739800D0204AF748BF96000A9456F71D0D9500990763F7645D93007D7B6FF71DB09100B5EF7BF748059000426488F7E55C8E0022D994F7F5B68C00B2
:406C0000554EA1F776138B00DBC3ADF76A728900B339BAF7D0D38700DCAFC6F7A93786005726D3F7F49D8400229DDFF7B20683003E14ECF7E2718100A98BF8F785DF7F00AE
:406C4000640305F89B4F7E006D7B11F823C27C00C5F31DF81E377B006A6C2AF88CAE79005DE536F86E2878009D5E43F8C2A4760029D84FF88923750001525CF8C3A4730034
:406C800024CC68F871287200924675F892AE70004BC181F826376F004D3C8EF82EC26D0099B79AF8A84F6C002E33A7F897DF6A000CAFB3F8F9716900312BC0F8CE06680019
:406CC0009EA7CCF8189E66005224D9F8D43765004DA1E5F805D463008E1EF2F8AA726200159CFEF8C2136100E0190BF94EB75F00F09717F94E5D5E00451624F9C3055D0022
:406D0000DD9430F9ABB05B00B8133DF9075E5A00D79249F9D80D5900371256F91DC05700D99162F9D6745600BC116FF9032C5500E1917BF9A5E55300451288F9BBA1520027
:406D4000EA9294F945605100CD13A1F945215000F094ADF9B8E44E005116BAF9A1AA4D00F097C6F9FE724C00CC19D3F9CF3D4B00E69BDFF9160B4A003B1EECF9D1DA48001F
:406D8000CDA0F8F901AD47009A2305FAA6814600A3A611FAC0584500E5291EFA4F32440062AD2AFA530E4300193137FACCEC410008B543FABACD4000303950FA1DB13F00EF
:406DC00091BD5CFAF6963E00294269FA447F3D00F8C675FA076A3C00FD4B82FA3F573B0039D18EFAED463A00AB569BFA1039390052DCA7FAA82D38002D62B4FAB6243700A7
:406E00003DE8C0FA3A1E3600816ECDFA331A3500F8F4D9FAA2183400A27BE6FA861933007E02F3FAE01C32008C89FFFAB0223100CB100CFBF52A30003B9818FBB1352F0059
:406E4000DC1F25FBE2422E00ACA731FB89522D00AC2F3EFBA6642C00DBB74AFB39792B00394057FB42902A00C4C863FBC1A929007D5170FBB6C5280063DA7CFB21E4270020
:406E8000756389FB02052700B4EC95FB592826001E76A2FB274E2500B3FFAEFB6A7624007389BBFB24A123005C13C8FB54CE2200709DD4FBFBFD2100AC27E1FB183021002A
:406EC00012B2EDFBAB6420009F3CFAFBB59B1F0054C706FC35D51E00315213FC2B111E0034DD1FFC994F1D005D682CFC7C901C00ACF338FCD6D31B00217F45FCA7191B00AE
:406F0000BA0A52FCEE611A0078965EFCACAC190059226BFCE1F918005EAE77FC8C491800853A84FCAE9B1700CFC690FC47F016003B539DFC57471600C8DFA9FCDDA01500F7
:406F4000776CB6FCDAFC140045F9C2FC4E5B14003486CFFC39BC13004213DCFC9B1F13006FA0E8FC74851200BB2DF5FCC3ED110024BB01FD8A581100AB480EFDC7C5100050
:406F800050D61AFD7C351000106427FDA8A70F00EDF133FD4A1C0F00E67F40FD64930E00F90D4DFDF50C0E00289C59FDFD880D00702A66FD7C070D00D2B872FD72880C001C
:406FC0004D477FFDE00B0C00E1D58BFDC4910B008D6498FD201A0B0051F3A4FDF3A40A002C82B1FD3D320A001E11BEFDFFC1090027A0CAFD38540900452FD7FDE8E80800D0
:4070000078BEE3FD0F800800C04DF0FDAE1908001DDDFCFDC4B507008D6C09FE5254070011FC15FE56F50600A78B22FED3980600501B2FFEC63E06000BAB3BFE31E70500D8
:40704000D83A48FE14920500B5CA54FE6E3F0500A35A61FE3FEF0400A1EA6DFE88A10400AE7A7AFE48560400CA0A87FE800D0400F59A93FE2FC703002E2BA0FE56830300C1
:4070800074BBACFEF4410300C84BB9FE0A03030028DCC5FE97C60200946CD2FE9C8C02000CFDDEFE195502008F8DEBFE0D2002001D1EF8FE78ED0100B5AE04FF5CBD010025
:4070C000563F11FFB68F010001D01DFF89640100B4602AFFD33B010070F136FF94150100348243FFCEF10000FE1250FF7ED00000D0A35CFFA7B10000A83469FF4795000094
:4071000085C575FF5F7B0000685682FFEE63000050E78EFFF54E00003C789BFF743C00002C09A8FF6A2C00001F9AB4FFD81E0000162BC1FFBD1300000FBCCDFF1A0B0000C1
:40714000094DDAFFEF04000005DEE6FF3C010000026FF3FF00000000000000003C010000FE900C00EF040000FB2119001A0B0000F7B22500BD130000F1433200D81E000067
:40718000EAD43E006A2C0000E1654B00743C0000D4F65700F54E0000C4876400EE630000B01871005F7B000098A97D00479500007B3A8A00A7B1000058CB96007ED000004D
:4071C000305CA300CEF1000002EDAF0094150100CC7DBC00D33B0100900EC900896401004C9FD500B68F0100FF2FE2005CBD0100AAC0EE0078ED01004B51FB000D2002003C
:40720000E3E1070119550200717214019C8C0200F402210197C602006C932D010A030300D8233A01F441030038B44601568303008C4453012FC70300D2D45F01800D04000B
